{
  "_format": "hh-sol-artifact-1",
  "contractName": "MyUSDCTest",
  "sourceName": "contracts/MyUSDCTest.sol",
  "abi": [
    {
      "inputs": [
        {
          "internalType": "address",
          "name": "initialOwner",
          "type": "address"
        }
      ],
      "stateMutability": "nonpayable",
      "type": "constructor"
    },
    {
      "inputs": [
        {
          "internalType": "address",
          "name": "spender",
          "type": "address"
        },
        {
          "internalType": "uint256",
          "name": "allowance",
          "type": "uint256"
        },
        {
          "internalType": "uint256",
          "name": "needed",
          "type": "uint256"
        }
      ],
      "name": "ERC20InsufficientAllowance",
      "type": "error"
    },
    {
      "inputs": [
        {
          "internalType": "address",
          "name": "sender",
          "type": "address"
        },
        {
          "internalType": "uint256",
          "name": "balance",
          "type": "uint256"
        },
        {
          "internalType": "uint256",
          "name": "needed",
          "type": "uint256"
        }
      ],
      "name": "ERC20InsufficientBalance",
      "type": "error"
    },
    {
      "inputs": [
        {
          "internalType": "address",
          "name": "approver",
          "type": "address"
        }
      ],
      "name": "ERC20InvalidApprover",
      "type": "error"
    },
    {
      "inputs": [
        {
          "internalType": "address",
          "name": "receiver",
          "type": "address"
        }
      ],
      "name": "ERC20InvalidReceiver",
      "type": "error"
    },
    {
      "inputs": [
        {
          "internalType": "address",
          "name": "sender",
          "type": "address"
        }
      ],
      "name": "ERC20InvalidSender",
      "type": "error"
    },
    {
      "inputs": [
        {
          "internalType": "address",
          "name": "spender",
          "type": "address"
        }
      ],
      "name": "ERC20InvalidSpender",
      "type": "error"
    },
    {
      "inputs": [
        {
          "internalType": "address",
          "name": "owner",
          "type": "address"
        }
      ],
      "name": "OwnableInvalidOwner",
      "type": "error"
    },
    {
      "inputs": [
        {
          "internalType": "address",
          "name": "account",
          "type": "address"
        }
      ],
      "name": "OwnableUnauthorizedAccount",
      "type": "error"
    },
    {
      "anonymous": false,
      "inputs": [
        {
          "indexed": true,
          "internalType": "address",
          "name": "owner",
          "type": "address"
        },
        {
          "indexed": true,
          "internalType": "address",
          "name": "spender",
          "type": "address"
        },
        {
          "indexed": false,
          "internalType": "uint256",
          "name": "value",
          "type": "uint256"
        }
      ],
      "name": "Approval",
      "type": "event"
    },
    {
      "anonymous": false,
      "inputs": [
        {
          "indexed": true,
          "internalType": "address",
          "name": "account",
          "type": "address"
        }
      ],
      "name": "Blacklisted",
      "type": "event"
    },
    {
      "anonymous": false,
      "inputs": [
        {
          "indexed": true,
          "internalType": "address",
          "name": "previousOwner",
          "type": "address"
        },
        {
          "indexed": true,
          "internalType": "address",
          "name": "newOwner",
          "type": "address"
        }
      ],
      "name": "OwnershipTransferred",
      "type": "event"
    },
    {
      "anonymous": false,
      "inputs": [],
      "name": "Paused",
      "type": "event"
    },
    {
      "anonymous": false,
      "inputs": [
        {
          "indexed": true,
          "internalType": "address",
          "name": "from",
          "type": "address"
        },
        {
          "indexed": true,
          "internalType": "address",
          "name": "to",
          "type": "address"
        },
        {
          "indexed": false,
          "internalType": "uint256",
          "name": "value",
          "type": "uint256"
        }
      ],
      "name": "Transfer",
      "type": "event"
    },
    {
      "anonymous": false,
      "inputs": [
        {
          "indexed": true,
          "internalType": "address",
          "name": "account",
          "type": "address"
        }
      ],
      "name": "Unblacklisted",
      "type": "event"
    },
    {
      "anonymous": false,
      "inputs": [],
      "name": "Unpaused",
      "type": "event"
    },
    {
      "inputs": [
        {
          "internalType": "address",
          "name": "owner",
          "type": "address"
        },
        {
          "internalType": "address",
          "name": "spender",
          "type": "address"
        }
      ],
      "name": "allowance",
      "outputs": [
        {
          "internalType": "uint256",
          "name": "",
          "type": "uint256"
        }
      ],
      "stateMutability": "view",
      "type": "function"
    },
    {
      "inputs": [
        {
          "internalType": "address",
          "name": "spender",
          "type": "address"
        },
        {
          "internalType": "uint256",
          "name": "amount",
          "type": "uint256"
        }
      ],
      "name": "approve",
      "outputs": [
        {
          "internalType": "bool",
          "name": "",
          "type": "bool"
        }
      ],
      "stateMutability": "nonpayable",
      "type": "function"
    },
    {
      "inputs": [
        {
          "internalType": "address",
          "name": "account",
          "type": "address"
        }
      ],
      "name": "balanceOf",
      "outputs": [
        {
          "internalType": "uint256",
          "name": "",
          "type": "uint256"
        }
      ],
      "stateMutability": "view",
      "type": "function"
    },
    {
      "inputs": [
        {
          "internalType": "address",
          "name": "account",
          "type": "address"
        }
      ],
      "name": "blacklist",
      "outputs": [],
      "stateMutability": "nonpayable",
      "type": "function"
    },
    {
      "inputs": [
        {
          "internalType": "uint256",
          "name": "amount",
          "type": "uint256"
        }
      ],
      "name": "burn",
      "outputs": [],
      "stateMutability": "nonpayable",
      "type": "function"
    },
    {
      "inputs": [
        {
          "internalType": "address",
          "name": "account",
          "type": "address"
        },
        {
          "internalType": "uint256",
          "name": "amount",
          "type": "uint256"
        }
      ],
      "name": "burnFrom",
      "outputs": [],
      "stateMutability": "nonpayable",
      "type": "function"
    },
    {
      "inputs": [],
      "name": "decimals",
      "outputs": [
        {
          "internalType": "uint8",
          "name": "",
          "type": "uint8"
        }
      ],
      "stateMutability": "view",
      "type": "function"
    },
    {
      "inputs": [
        {
          "internalType": "address",
          "name": "account",
          "type": "address"
        }
      ],
      "name": "isBlacklisted",
      "outputs": [
        {
          "internalType": "bool",
          "name": "",
          "type": "bool"
        }
      ],
      "stateMutability": "view",
      "type": "function"
    },
    {
      "inputs": [
        {
          "internalType": "address",
          "name": "to",
          "type": "address"
        },
        {
          "internalType": "uint256",
          "name": "amount",
          "type": "uint256"
        }
      ],
      "name": "mint",
      "outputs": [],
      "stateMutability": "nonpayable",
      "type": "function"
    },
    {
      "inputs": [],
      "name": "name",
      "outputs": [
        {
          "internalType": "string",
          "name": "",
          "type": "string"
        }
      ],
      "stateMutability": "view",
      "type": "function"
    },
    {
      "inputs": [],
      "name": "owner",
      "outputs": [
        {
          "internalType": "address",
          "name": "",
          "type": "address"
        }
      ],
      "stateMutability": "view",
      "type": "function"
    },
    {
      "inputs": [],
      "name": "pause",
      "outputs": [],
      "stateMutability": "nonpayable",
      "type": "function"
    },
    {
      "inputs": [],
      "name": "paused",
      "outputs": [
        {
          "internalType": "bool",
          "name": "",
          "type": "bool"
        }
      ],
      "stateMutability": "view",
      "type": "function"
    },
    {
      "inputs": [],
      "name": "renounceOwnership",
      "outputs": [],
      "stateMutability": "nonpayable",
      "type": "function"
    },
    {
      "inputs": [],
      "name": "symbol",
      "outputs": [
        {
          "internalType": "string",
          "name": "",
          "type": "string"
        }
      ],
      "stateMutability": "view",
      "type": "function"
    },
    {
      "inputs": [],
      "name": "totalSupply",
      "outputs": [
        {
          "internalType": "uint256",
          "name": "",
          "type": "uint256"
        }
      ],
      "stateMutability": "view",
      "type": "function"
    },
    {
      "inputs": [
        {
          "internalType": "address",
          "name": "to",
          "type": "address"
        },
        {
          "internalType": "uint256",
          "name": "amount",
          "type": "uint256"
        }
      ],
      "name": "transfer",
      "outputs": [
        {
          "internalType": "bool",
          "name": "",
          "type": "bool"
        }
      ],
      "stateMutability": "nonpayable",
      "type": "function"
    },
    {
      "inputs": [
        {
          "internalType": "address",
          "name": "from",
          "type": "address"
        },
        {
          "internalType": "address",
          "name": "to",
          "type": "address"
        },
        {
          "internalType": "uint256",
          "name": "amount",
          "type": "uint256"
        }
      ],
      "name": "transferFrom",
      "outputs": [
        {
          "internalType": "bool",
          "name": "",
          "type": "bool"
        }
      ],
      "stateMutability": "nonpayable",
      "type": "function"
    },
    {
      "inputs": [
        {
          "internalType": "address",
          "name": "newOwner",
          "type": "address"
        }
      ],
      "name": "transferOwnership",
      "outputs": [],
      "stateMutability": "nonpayable",
      "type": "function"
    },
    {
      "inputs": [
        {
          "internalType": "address",
          "name": "account",
          "type": "address"
        }
      ],
      "name": "unblacklist",
      "outputs": [],
      "stateMutability": "nonpayable",
      "type": "function"
    },
    {
      "inputs": [],
      "name": "unpause",
      "outputs": [],
      "stateMutability": "nonpayable",
      "type": "function"
    }
  ],
  "bytecode": "0x60806040523480156200001157600080fd5b50604051620012233803806200122383398101604081905262000034916200013c565b806040518060400160405280600a81526020016926bcaaa9a21021b7b4b760b11b815250604051806040016040528060058152602001646d5553444360d81b815250816003908162000087919062000213565b50600462000096828262000213565b5050506001600160a01b038116620000c857604051631e4fbdf760e01b81526000600482015260240160405180910390fd5b620000d381620000ea565b50506007805461ff001916610600179055620002df565b600580546001600160a01b038381166001600160a01b0319831681179093556040519116919082907f8be0079c531659141344cd1fd0a4f28419497f9722a3daafe3b4186f6b6457e090600090a35050565b6000602082840312156200014f57600080fd5b81516001600160a01b03811681146200016757600080fd5b9392505050565b634e487b7160e01b600052604160045260246000fd5b600181811c908216806200019957607f821691505b602082108103620001ba57634e487b7160e01b600052602260045260246000fd5b50919050565b601f8211156200020e57600081815260208120601f850160051c81016020861015620001e95750805b601f850160051c820191505b818110156200020a57828155600101620001f5565b5050505b505050565b81516001600160401b038111156200022f576200022f6200016e565b620002478162000240845462000184565b84620001c0565b602080601f8311600181146200027f5760008415620002665750858301515b600019600386901b1c1916600185901b1785556200020a565b600085815260208120601f198616915b82811015620002b0578886015182559484019460019091019084016200028f565b5085821015620002cf5787850151600019600388901b60f8161c191681555b5050505050600190811b01905550565b610f3480620002ef6000396000f3fe608060405234801561001057600080fd5b50600436106101375760003560e01c8063715018a6116100b857806395d89b411161007c57806395d89b4114610274578063a9059cbb1461027c578063dd62ed3e1461028f578063f2fde38b146102a2578063f9f92be4146102b5578063fe575a87146102c857600080fd5b8063715018a61461022357806375e3661e1461022b57806379cc67901461023e5780638456cb59146102515780638da5cb5b1461025957600080fd5b80633f4ba83a116100ff5780633f4ba83a146101bf57806340c10f19146101c957806342966c68146101dc5780635c975abb146101ef57806370a08231146101fa57600080fd5b806306fdde031461013c578063095ea7b31461015a57806318160ddd1461017d57806323b872dd1461018f578063313ce567146101a2575b600080fd5b6101446102f4565b6040516101519190610cdc565b60405180910390f35b61016d610168366004610d46565b610386565b6040519015158152602001610151565b6002545b604051908152602001610151565b61016d61019d366004610d70565b610433565b600754610100900460ff1660405160ff9091168152602001610151565b6101c7610515565b005b6101c76101d7366004610d46565b610552565b6101c76101ea366004610dac565b6105c7565b60075460ff1661016d565b610181610208366004610dc5565b6001600160a01b031660009081526020819052604090205490565b6101c7610628565b6101c7610239366004610dc5565b61063c565b6101c761024c366004610d46565b61068d565b6101c7610736565b6005546040516001600160a01b039091168152602001610151565b610144610776565b61016d61028a366004610d46565b610785565b61018161029d366004610de7565b610820565b6101c76102b0366004610dc5565b61084d565b6101c76102c3366004610dc5565b61088b565b61016d6102d6366004610dc5565b6001600160a01b031660009081526006602052604090205460ff1690565b60606003805461030390610e1a565b80601f016020809104026020016040519081016040528092919081815260200182805461032f90610e1a565b801561037c5780601f106103515761010080835404028352916020019161037c565b820191906000526020600020905b81548152906001019060200180831161035f57829003601f168201915b5050505050905090565b60075460009060ff16156103b55760405162461bcd60e51b81526004016103ac90610e54565b60405180910390fd5b3360008181526006602052604090205460ff16156103e55760405162461bcd60e51b81526004016103ac90610e9b565b6001600160a01b038416600090815260066020526040902054849060ff16156104205760405162461bcd60e51b81526004016103ac90610e9b565b61042a85856108df565b95945050505050565b60075460009060ff16156104595760405162461bcd60e51b81526004016103ac90610e54565b3360008181526006602052604090205460ff16156104895760405162461bcd60e51b81526004016103ac90610e9b565b6001600160a01b038516600090815260066020526040902054859060ff16156104c45760405162461bcd60e51b81526004016103ac90610e9b565b6001600160a01b038516600090815260066020526040902054859060ff16156104ff5760405162461bcd60e51b81526004016103ac90610e9b565b61050a8787876108f7565b979650505050505050565b61051d61091b565b6007805460ff191690556040517fa45f47fdea8a1efdd9029a5691c7f759c32b7c698632b563573e155625d1693390600090a1565b61055a61091b565b60075460ff161561057d5760405162461bcd60e51b81526004016103ac90610e54565b6001600160a01b038216600090815260066020526040902054829060ff16156105b85760405162461bcd60e51b81526004016103ac90610e9b565b6105c28383610948565b505050565b60075460ff16156105ea5760405162461bcd60e51b81526004016103ac90610e54565b3360008181526006602052604090205460ff161561061a5760405162461bcd60e51b81526004016103ac90610e9b565b610624338361097e565b5050565b61063061091b565b61063a60006109b4565b565b61064461091b565b6001600160a01b038116600081815260066020526040808220805460ff19169055517f7534c63860313c46c473e4e98328f37017e9674e2162faf1a3ad7a96236c3b7b9190a250565b60075460ff16156106b05760405162461bcd60e51b81526004016103ac90610e54565b6001600160a01b038216600090815260066020526040902054829060ff16156106eb5760405162461bcd60e51b81526004016103ac90610e9b565b3360008181526006602052604090205460ff161561071b5760405162461bcd60e51b81526004016103ac90610e9b565b610726843385610a06565b610730848461097e565b50505050565b61073e61091b565b6007805460ff191660011790556040517f9e87fac88ff661f02d44f95383c817fece4bce600a3dab7a54406878b965e75290600090a1565b60606004805461030390610e1a565b60075460009060ff16156107ab5760405162461bcd60e51b81526004016103ac90610e54565b3360008181526006602052604090205460ff16156107db5760405162461bcd60e51b81526004016103ac90610e9b565b6001600160a01b038416600090815260066020526040902054849060ff16156108165760405162461bcd60e51b81526004016103ac90610e9b565b61042a8585610a67565b6001600160a01b038083166000908152600160209081526040808320938516835292905220545b92915050565b61085561091b565b6001600160a01b03811661087f57604051631e4fbdf760e01b8152600060048201526024016103ac565b610888816109b4565b50565b61089361091b565b6001600160a01b038116600081815260066020526040808220805460ff19166001179055517fffa4e6181777692565cf28528fc88fd1516ea86b56da075235fa575af6a4b8559190a250565b6000336108ed818585610a75565b5060019392505050565b600033610905858285610a06565b610910858585610a82565b506001949350505050565b6005546001600160a01b0316331461063a5760405163118cdaa760e01b81523360048201526024016103ac565b6001600160a01b0382166109725760405163ec442f0560e01b8152600060048201526024016103ac565b61062460008383610add565b6001600160a01b0382166109a857604051634b637e8f60e11b8152600060048201526024016103ac565b61062482600083610add565b600580546001600160a01b038381166001600160a01b0319831681179093556040519116919082907f8be0079c531659141344cd1fd0a4f28419497f9722a3daafe3b4186f6b6457e090600090a35050565b6000610a128484610820565b90506000198110156107305781811015610a5857604051637dc7a0d960e11b81526001600160a01b038416600482015260248101829052604481018390526064016103ac565b61073084848484036000610c07565b6000336108ed818585610a82565b6105c28383836001610c07565b6001600160a01b038316610aac57604051634b637e8f60e11b8152600060048201526024016103ac565b6001600160a01b038216610ad65760405163ec442f0560e01b8152600060048201526024016103ac565b6105c28383835b6001600160a01b038316610b08578060026000828254610afd9190610edd565b90915550610b7a9050565b6001600160a01b03831660009081526020819052604090205481811015610b5b5760405163391434e360e21b81526001600160a01b038516600482015260248101829052604481018390526064016103ac565b6001600160a01b03841660009081526020819052604090209082900390555b6001600160a01b038216610b9657600280548290039055610bb5565b6001600160a01b03821660009081526020819052604090208054820190555b816001600160a01b0316836001600160a01b03167fddf252ad1be2c89b69c2b068fc378daa952ba7f163c4a11628f55a4df523b3ef83604051610bfa91815260200190565b60405180910390a3505050565b6001600160a01b038416610c315760405163e602df0560e01b8152600060048201526024016103ac565b6001600160a01b038316610c5b57604051634a1406b160e11b8152600060048201526024016103ac565b6001600160a01b038085166000908152600160209081526040808320938716835292905220829055801561073057826001600160a01b0316846001600160a01b03167f8c5be1e5ebec7d5bd14f71427d1e84f3dd0314c0f7b2291e5b200ac8c7c3b92584604051610cce91815260200190565b60405180910390a350505050565b600060208083528351808285015260005b81811015610d0957858101830151858201604001528201610ced565b506000604082860101526040601f19601f8301168501019250505092915050565b80356001600160a01b0381168114610d4157600080fd5b919050565b60008060408385031215610d5957600080fd5b610d6283610d2a565b946020939093013593505050565b600080600060608486031215610d8557600080fd5b610d8e84610d2a565b9250610d9c60208501610d2a565b9150604084013590509250925092565b600060208284031215610dbe57600080fd5b5035919050565b600060208284031215610dd757600080fd5b610de082610d2a565b9392505050565b60008060408385031215610dfa57600080fd5b610e0383610d2a565b9150610e1160208401610d2a565b90509250929050565b600181811c90821680610e2e57607f821691505b602082108103610e4e57634e487b7160e01b600052602260045260246000fd5b50919050565b60208082526027908201527f4d7955534443546573743a20746f6b656e207472616e73666572207768696c65604082015266081c185d5cd95960ca1b606082015260800190565b60208082526022908201527f4d7955534443546573743a206163636f756e7420697320626c61636b6c697374604082015261195960f21b606082015260800190565b8082018082111561084757634e487b7160e01b600052601160045260246000fdfea26469706673582212208ca4c240b6a8f9166887c6918ab53358d0034f6fd341be217758d2d88e186d9664736f6c63430008140033",
  "linkReferences": {},
  "deployedLinkReferences": {}
}