{
  "_format": "hh-sol-artifact-1",
  "contractName": "MyUSDC",
  "sourceName": "contracts/MyUSDC.sol",
  "abi": [
    {
      "inputs": [
        {
          "internalType": "address",
          "name": "bankPrecompile",
          "type": "address"
        },
        {
          "internalType": "address",
          "name": "initialOwner",
          "type": "address"
        }
      ],
      "stateMutability": "nonpayable",
      "type": "constructor"
    },
    {
      "inputs": [
        {
          "internalType": "address",
          "name": "spender",
          "type": "address"
        },
        {
          "internalType": "uint256",
          "name": "allowance",
          "type": "uint256"
        },
        {
          "internalType": "uint256",
          "name": "needed",
          "type": "uint256"
        }
      ],
      "name": "ERC20InsufficientAllowance",
      "type": "error"
    },
    {
      "inputs": [
        {
          "internalType": "address",
          "name": "sender",
          "type": "address"
        },
        {
          "internalType": "uint256",
          "name": "balance",
          "type": "uint256"
        },
        {
          "internalType": "uint256",
          "name": "needed",
          "type": "uint256"
        }
      ],
      "name": "ERC20InsufficientBalance",
      "type": "error"
    },
    {
      "inputs": [
        {
          "internalType": "address",
          "name": "approver",
          "type": "address"
        }
      ],
      "name": "ERC20InvalidApprover",
      "type": "error"
    },
    {
      "inputs": [
        {
          "internalType": "address",
          "name": "receiver",
          "type": "address"
        }
      ],
      "name": "ERC20InvalidReceiver",
      "type": "error"
    },
    {
      "inputs": [
        {
          "internalType": "address",
          "name": "sender",
          "type": "address"
        }
      ],
      "name": "ERC20InvalidSender",
      "type": "error"
    },
    {
      "inputs": [
        {
          "internalType": "address",
          "name": "spender",
          "type": "address"
        }
      ],
      "name": "ERC20InvalidSpender",
      "type": "error"
    },
    {
      "inputs": [
        {
          "internalType": "address",
          "name": "owner",
          "type": "address"
        }
      ],
      "name": "OwnableInvalidOwner",
      "type": "error"
    },
    {
      "inputs": [
        {
          "internalType": "address",
          "name": "account",
          "type": "address"
        }
      ],
      "name": "OwnableUnauthorizedAccount",
      "type": "error"
    },
    {
      "anonymous": false,
      "inputs": [
        {
          "indexed": true,
          "internalType": "address",
          "name": "owner",
          "type": "address"
        },
        {
          "indexed": true,
          "internalType": "address",
          "name": "spender",
          "type": "address"
        },
        {
          "indexed": false,
          "internalType": "uint256",
          "name": "value",
          "type": "uint256"
        }
      ],
      "name": "Approval",
      "type": "event"
    },
    {
      "anonymous": false,
      "inputs": [
        {
          "indexed": true,
          "internalType": "address",
          "name": "account",
          "type": "address"
        }
      ],
      "name": "Blacklisted",
      "type": "event"
    },
    {
      "anonymous": false,
      "inputs": [
        {
          "indexed": true,
          "internalType": "address",
          "name": "previousOwner",
          "type": "address"
        },
        {
          "indexed": true,
          "internalType": "address",
          "name": "newOwner",
          "type": "address"
        }
      ],
      "name": "OwnershipTransferred",
      "type": "event"
    },
    {
      "anonymous": false,
      "inputs": [],
      "name": "Paused",
      "type": "event"
    },
    {
      "anonymous": false,
      "inputs": [
        {
          "indexed": true,
          "internalType": "address",
          "name": "from",
          "type": "address"
        },
        {
          "indexed": true,
          "internalType": "address",
          "name": "to",
          "type": "address"
        },
        {
          "indexed": false,
          "internalType": "uint256",
          "name": "value",
          "type": "uint256"
        }
      ],
      "name": "Transfer",
      "type": "event"
    },
    {
      "anonymous": false,
      "inputs": [
        {
          "indexed": true,
          "internalType": "address",
          "name": "account",
          "type": "address"
        }
      ],
      "name": "Unblacklisted",
      "type": "event"
    },
    {
      "anonymous": false,
      "inputs": [],
      "name": "Unpaused",
      "type": "event"
    },
    {
      "inputs": [
        {
          "internalType": "address",
          "name": "owner",
          "type": "address"
        },
        {
          "internalType": "address",
          "name": "spender",
          "type": "address"
        }
      ],
      "name": "allowance",
      "outputs": [
        {
          "internalType": "uint256",
          "name": "",
          "type": "uint256"
        }
      ],
      "stateMutability": "view",
      "type": "function"
    },
    {
      "inputs": [
        {
          "internalType": "address",
          "name": "spender",
          "type": "address"
        },
        {
          "internalType": "uint256",
          "name": "amount",
          "type": "uint256"
        }
      ],
      "name": "approve",
      "outputs": [
        {
          "internalType": "bool",
          "name": "",
          "type": "bool"
        }
      ],
      "stateMutability": "nonpayable",
      "type": "function"
    },
    {
      "inputs": [
        {
          "internalType": "address",
          "name": "account",
          "type": "address"
        }
      ],
      "name": "balanceOf",
      "outputs": [
        {
          "internalType": "uint256",
          "name": "",
          "type": "uint256"
        }
      ],
      "stateMutability": "view",
      "type": "function"
    },
    {
      "inputs": [],
      "name": "bank",
      "outputs": [
        {
          "internalType": "contract IBankModule",
          "name": "",
          "type": "address"
        }
      ],
      "stateMutability": "view",
      "type": "function"
    },
    {
      "inputs": [
        {
          "internalType": "address",
          "name": "account",
          "type": "address"
        }
      ],
      "name": "blacklist",
      "outputs": [],
      "stateMutability": "nonpayable",
      "type": "function"
    },
    {
      "inputs": [
        {
          "internalType": "uint256",
          "name": "amount",
          "type": "uint256"
        }
      ],
      "name": "burn",
      "outputs": [],
      "stateMutability": "nonpayable",
      "type": "function"
    },
    {
      "inputs": [
        {
          "internalType": "address",
          "name": "account",
          "type": "address"
        },
        {
          "internalType": "uint256",
          "name": "amount",
          "type": "uint256"
        }
      ],
      "name": "burnFrom",
      "outputs": [],
      "stateMutability": "nonpayable",
      "type": "function"
    },
    {
      "inputs": [],
      "name": "decimals",
      "outputs": [
        {
          "internalType": "uint8",
          "name": "",
          "type": "uint8"
        }
      ],
      "stateMutability": "view",
      "type": "function"
    },
    {
      "inputs": [
        {
          "internalType": "address",
          "name": "account",
          "type": "address"
        }
      ],
      "name": "isBlacklisted",
      "outputs": [
        {
          "internalType": "bool",
          "name": "",
          "type": "bool"
        }
      ],
      "stateMutability": "view",
      "type": "function"
    },
    {
      "inputs": [
        {
          "internalType": "address",
          "name": "to",
          "type": "address"
        },
        {
          "internalType": "uint256",
          "name": "amount",
          "type": "uint256"
        }
      ],
      "name": "mint",
      "outputs": [],
      "stateMutability": "payable",
      "type": "function"
    },
    {
      "inputs": [],
      "name": "name",
      "outputs": [
        {
          "internalType": "string",
          "name": "",
          "type": "string"
        }
      ],
      "stateMutability": "view",
      "type": "function"
    },
    {
      "inputs": [],
      "name": "owner",
      "outputs": [
        {
          "internalType": "address",
          "name": "",
          "type": "address"
        }
      ],
      "stateMutability": "view",
      "type": "function"
    },
    {
      "inputs": [],
      "name": "pause",
      "outputs": [],
      "stateMutability": "nonpayable",
      "type": "function"
    },
    {
      "inputs": [],
      "name": "paused",
      "outputs": [
        {
          "internalType": "bool",
          "name": "",
          "type": "bool"
        }
      ],
      "stateMutability": "view",
      "type": "function"
    },
    {
      "inputs": [],
      "name": "renounceOwnership",
      "outputs": [],
      "stateMutability": "nonpayable",
      "type": "function"
    },
    {
      "inputs": [],
      "name": "symbol",
      "outputs": [
        {
          "internalType": "string",
          "name": "",
          "type": "string"
        }
      ],
      "stateMutability": "view",
      "type": "function"
    },
    {
      "inputs": [],
      "name": "totalSupply",
      "outputs": [
        {
          "internalType": "uint256",
          "name": "",
          "type": "uint256"
        }
      ],
      "stateMutability": "view",
      "type": "function"
    },
    {
      "inputs": [
        {
          "internalType": "address",
          "name": "to",
          "type": "address"
        },
        {
          "internalType": "uint256",
          "name": "amount",
          "type": "uint256"
        }
      ],
      "name": "transfer",
      "outputs": [
        {
          "internalType": "bool",
          "name": "",
          "type": "bool"
        }
      ],
      "stateMutability": "nonpayable",
      "type": "function"
    },
    {
      "inputs": [
        {
          "internalType": "address",
          "name": "from",
          "type": "address"
        },
        {
          "internalType": "address",
          "name": "to",
          "type": "address"
        },
        {
          "internalType": "uint256",
          "name": "amount",
          "type": "uint256"
        }
      ],
      "name": "transferFrom",
      "outputs": [
        {
          "internalType": "bool",
          "name": "",
          "type": "bool"
        }
      ],
      "stateMutability": "nonpayable",
      "type": "function"
    },
    {
      "inputs": [
        {
          "internalType": "address",
          "name": "newOwner",
          "type": "address"
        }
      ],
      "name": "transferOwnership",
      "outputs": [],
      "stateMutability": "nonpayable",
      "type": "function"
    },
    {
      "inputs": [
        {
          "internalType": "address",
          "name": "account",
          "type": "address"
        }
      ],
      "name": "unblacklist",
      "outputs": [],
      "stateMutability": "nonpayable",
      "type": "function"
    },
    {
      "inputs": [],
      "name": "unpause",
      "outputs": [],
      "stateMutability": "nonpayable",
      "type": "function"
    }
  ],
  "bytecode": "0x60a06040523480156200001157600080fd5b50604051620017bc380380620017bc8339810160408190526200003491620001ea565b806040518060400160405280600a81526020016926bcaaa9a21021b7b4b760b11b815250604051806040016040528060058152602001646d5553444360d81b815250600685838381600390816200008c9190620002c7565b5060046200009b8282620002c7565b5050506001600160a01b03811660808190526005805460ff191660ff8516179055604051630df4b0bd60e21b81526337d2c2f490620000e390879087908790600401620003db565b6020604051808303816000875af115801562000103573d6000803e3d6000fd5b505050506040513d601f19601f8201168201806040525081019062000129919062000418565b5050506001600160a01b03831691506200015f905057604051631e4fbdf760e01b81526000600482015260240160405180910390fd5b6200016a8162000173565b50505062000443565b600580546001600160a01b03838116610100818102610100600160a81b031985161790945560405193909204169182907f8be0079c531659141344cd1fd0a4f28419497f9722a3daafe3b4186f6b6457e090600090a35050565b80516001600160a01b0381168114620001e557600080fd5b919050565b60008060408385031215620001fe57600080fd5b6200020983620001cd565b91506200021960208401620001cd565b90509250929050565b634e487b7160e01b600052604160045260246000fd5b600181811c908216806200024d57607f821691505b6020821081036200026e57634e487b7160e01b600052602260045260246000fd5b50919050565b601f821115620002c257600081815260208120601f850160051c810160208610156200029d5750805b601f850160051c820191505b81811015620002be57828155600101620002a9565b5050505b505050565b81516001600160401b03811115620002e357620002e362000222565b620002fb81620002f4845462000238565b8462000274565b602080601f8311600181146200033357600084156200031a5750858301515b600019600386901b1c1916600185901b178555620002be565b600085815260208120601f198616915b82811015620003645788860151825594840194600190910190840162000343565b5085821015620003835787850151600019600388901b60f8161c191681555b5050505050600190811b01905550565b6000815180845260005b81811015620003bb576020818501810151868301820152016200039d565b506000602082860101526020601f19601f83011685010191505092915050565b606081526000620003f0606083018662000393565b828103602084015262000404818662000393565b91505060ff83166040830152949350505050565b6000602082840312156200042b57600080fd5b815180151581146200043c57600080fd5b9392505050565b6080516113416200047b600039600081816102d501528181610ab301528181610b3601528181610c620152610f3701526113416000f3fe6080604052600436106101355760003560e01c806375e3661e116100ab57806395d89b411161006f57806395d89b4114610367578063a9059cbb1461037c578063dd62ed3e1461039c578063f2fde38b146103bc578063f9f92be4146103dc578063fe575a87146103fc57600080fd5b806375e3661e146102a357806376cdb03b146102c357806379cc67901461030f5780638456cb591461032f5780638da5cb5b1461034457600080fd5b80633f4ba83a116100fd5780633f4ba83a146101f657806340c10f191461020d57806342966c68146102205780635c975abb1461024057806370a0823114610258578063715018a61461028e57600080fd5b806306fdde031461013a578063095ea7b31461016557806318160ddd1461019557806323b872dd146101b4578063313ce567146101d4575b600080fd5b34801561014657600080fd5b5061014f610435565b60405161015c91906110d6565b60405180910390f35b34801561017157600080fd5b50610185610180366004611140565b6104c7565b604051901515815260200161015c565b3480156101a157600080fd5b506002545b60405190815260200161015c565b3480156101c057600080fd5b506101856101cf36600461116a565b610574565b3480156101e057600080fd5b5060055460405160ff909116815260200161015c565b34801561020257600080fd5b5061020b610656565b005b61020b61021b366004611140565b610693565b34801561022c57600080fd5b5061020b61023b3660046111a6565b610708565b34801561024c57600080fd5b5060075460ff16610185565b34801561026457600080fd5b506101a66102733660046111bf565b6001600160a01b031660009081526020819052604090205490565b34801561029a57600080fd5b5061020b610768565b3480156102af57600080fd5b5061020b6102be3660046111bf565b61077c565b3480156102cf57600080fd5b506102f77f000000000000000000000000000000000000000000000000000000000000000081565b6040516001600160a01b03909116815260200161015c565b34801561031b57600080fd5b5061020b61032a366004611140565b6107cd565b34801561033b57600080fd5b5061020b61086b565b34801561035057600080fd5b5060055461010090046001600160a01b03166102f7565b34801561037357600080fd5b5061014f6108ab565b34801561038857600080fd5b50610185610397366004611140565b6108ba565b3480156103a857600080fd5b506101a66103b73660046111e1565b610955565b3480156103c857600080fd5b5061020b6103d73660046111bf565b610982565b3480156103e857600080fd5b5061020b6103f73660046111bf565b6109c0565b34801561040857600080fd5b506101856104173660046111bf565b6001600160a01b031660009081526006602052604090205460ff1690565b60606003805461044490611214565b80601f016020809104026020016040519081016040528092919081815260200182805461047090611214565b80156104bd5780601f10610492576101008083540402835291602001916104bd565b820191906000526020600020905b8154815290600101906020018083116104a057829003601f168201915b5050505050905090565b60075460009060ff16156104f65760405162461bcd60e51b81526004016104ed9061124e565b60405180910390fd5b3360008181526006602052604090205460ff16156105265760405162461bcd60e51b81526004016104ed90611291565b6001600160a01b038416600090815260066020526040902054849060ff16156105615760405162461bcd60e51b81526004016104ed90611291565b61056b8585610a14565b95945050505050565b60075460009060ff161561059a5760405162461bcd60e51b81526004016104ed9061124e565b3360008181526006602052604090205460ff16156105ca5760405162461bcd60e51b81526004016104ed90611291565b6001600160a01b038516600090815260066020526040902054859060ff16156106055760405162461bcd60e51b81526004016104ed90611291565b6001600160a01b038516600090815260066020526040902054859060ff16156106405760405162461bcd60e51b81526004016104ed90611291565b61064b878787610a2c565b979650505050505050565b61065e610a50565b6007805460ff191690556040517fa45f47fdea8a1efdd9029a5691c7f759c32b7c698632b563573e155625d1693390600090a1565b60075460ff16156106b65760405162461bcd60e51b81526004016104ed9061124e565b6001600160a01b038216600090815260066020526040902054829060ff16156106f15760405162461bcd60e51b81526004016104ed90611291565b6106f9610a50565b6107038383610a83565b505050565b60075460ff161561072b5760405162461bcd60e51b81526004016104ed9061124e565b3360008181526006602052604090205460ff161561075b5760405162461bcd60e51b81526004016104ed90611291565b61076482610b22565b5050565b610770610a50565b61077a6000610bcd565b565b610784610a50565b6001600160a01b038116600081815260066020526040808220805460ff19169055517f7534c63860313c46c473e4e98328f37017e9674e2162faf1a3ad7a96236c3b7b9190a250565b60075460ff16156107f05760405162461bcd60e51b81526004016104ed9061124e565b6001600160a01b038216600090815260066020526040902054829060ff161561082b5760405162461bcd60e51b81526004016104ed90611291565b3360008181526006602052604090205460ff161561085b5760405162461bcd60e51b81526004016104ed90611291565b6108658484610c27565b50505050565b610873610a50565b6007805460ff191660011790556040517f9e87fac88ff661f02d44f95383c817fece4bce600a3dab7a54406878b965e75290600090a1565b60606004805461044490611214565b60075460009060ff16156108e05760405162461bcd60e51b81526004016104ed9061124e565b3360008181526006602052604090205460ff16156109105760405162461bcd60e51b81526004016104ed90611291565b6001600160a01b038416600090815260066020526040902054849060ff161561094b5760405162461bcd60e51b81526004016104ed90611291565b61056b8585610ccf565b6001600160a01b038083166000908152600160209081526040808320938516835292905220545b92915050565b61098a610a50565b6001600160a01b0381166109b457604051631e4fbdf760e01b8152600060048201526024016104ed565b6109bd81610bcd565b50565b6109c8610a50565b6001600160a01b038116600081815260066020526040808220805460ff19166001179055517fffa4e6181777692565cf28528fc88fd1516ea86b56da075235fa575af6a4b8559190a250565b600033610a22818585610cdd565b5060019392505050565b600033610a3a858285610cea565b610a45858585610d4b565b506001949350505050565b6005546001600160a01b0361010090910416331461077a5760405163118cdaa760e01b81523360048201526024016104ed565b610a8d8282610daa565b6040516340c10f1960e01b81526001600160a01b038381166004830152602482018390527f000000000000000000000000000000000000000000000000000000000000000016906340c10f1990349060440160206040518083038185885af1158015610afd573d6000803e3d6000fd5b50505050506040513d601f19601f8201168201806040525081019061070391906112c8565b610b2c3382610de0565b6001600160a01b037f000000000000000000000000000000000000000000000000000000000000000016639dc29fac336040516001600160e01b031960e084901b1681526001600160a01b039091166004820152602481018490526044016020604051808303816000875af1158015610ba9573d6000803e3d6000fd5b505050506040513d601f19601f8201168201806040525081019061076491906112c8565b600580546001600160a01b03838116610100818102610100600160a81b031985161790945560405193909204169182907f8be0079c531659141344cd1fd0a4f28419497f9722a3daafe3b4186f6b6457e090600090a35050565b610c32823383610cea565b610c3c8282610de0565b604051632770a7eb60e21b81526001600160a01b038381166004830152602482018390527f00000000000000000000000000000000000000000000000000000000000000001690639dc29fac906044016020604051808303816000875af1158015610cab573d6000803e3d6000fd5b505050506040513d601f19601f8201168201806040525081019061070391906112c8565b600033610a22818585610d4b565b6107038383836001610e16565b6000610cf68484610955565b90506000198110156108655781811015610d3c57604051637dc7a0d960e11b81526001600160a01b038416600482015260248101829052604481018390526064016104ed565b61086584848484036000610e16565b6001600160a01b038316610d7557604051634b637e8f60e11b8152600060048201526024016104ed565b6001600160a01b038216610d9f5760405163ec442f0560e01b8152600060048201526024016104ed565b610703838383610eeb565b6001600160a01b038216610dd45760405163ec442f0560e01b8152600060048201526024016104ed565b61076460008383610eeb565b6001600160a01b038216610e0a57604051634b637e8f60e11b8152600060048201526024016104ed565b61076482600083610eeb565b6001600160a01b038416610e405760405163e602df0560e01b8152600060048201526024016104ed565b6001600160a01b038316610e6a57604051634a1406b160e11b8152600060048201526024016104ed565b6001600160a01b038085166000908152600160209081526040808320938716835292905220829055801561086557826001600160a01b0316846001600160a01b03167f8c5be1e5ebec7d5bd14f71427d1e84f3dd0314c0f7b2291e5b200ac8c7c3b92584604051610edd91815260200190565b60405180910390a350505050565b6001600160a01b03831615610fa6576001600160a01b03821615610fa6576040516317d5759960e31b81526001600160a01b0384811660048301528381166024830152604482018390527f0000000000000000000000000000000000000000000000000000000000000000169063beabacc8906064016020604051808303816000875af1158015610f80573d6000803e3d6000fd5b505050506040513d601f19601f82011682018060405250810190610fa491906112c8565b505b6107038383836001600160a01b038316610fd7578060026000828254610fcc91906112ea565b909155506110499050565b6001600160a01b0383166000908152602081905260409020548181101561102a5760405163391434e360e21b81526001600160a01b038516600482015260248101829052604481018390526064016104ed565b6001600160a01b03841660009081526020819052604090209082900390555b6001600160a01b03821661106557600280548290039055611084565b6001600160a01b03821660009081526020819052604090208054820190555b816001600160a01b0316836001600160a01b03167fddf252ad1be2c89b69c2b068fc378daa952ba7f163c4a11628f55a4df523b3ef836040516110c991815260200190565b60405180910390a3505050565b600060208083528351808285015260005b81811015611103578581018301518582016040015282016110e7565b506000604082860101526040601f19601f8301168501019250505092915050565b80356001600160a01b038116811461113b57600080fd5b919050565b6000806040838503121561115357600080fd5b61115c83611124565b946020939093013593505050565b60008060006060848603121561117f57600080fd5b61118884611124565b925061119660208501611124565b9150604084013590509250925092565b6000602082840312156111b857600080fd5b5035919050565b6000602082840312156111d157600080fd5b6111da82611124565b9392505050565b600080604083850312156111f457600080fd5b6111fd83611124565b915061120b60208401611124565b90509250929050565b600181811c9082168061122857607f821691505b60208210810361124857634e487b7160e01b600052602260045260246000fd5b50919050565b60208082526023908201527f4d79555344433a20746f6b656e207472616e73666572207768696c65207061756040820152621cd95960ea1b606082015260800190565b6020808252601e908201527f4d79555344433a206163636f756e7420697320626c61636b6c69737465640000604082015260600190565b6000602082840312156112da57600080fd5b815180151581146111da57600080fd5b8082018082111561097c57634e487b7160e01b600052601160045260246000fdfea2646970667358221220ec60192735f1ca2b4810117c74d114d8b5dffad0ec72c2d7c165477a340d0a8e64736f6c63430008140033",
  "linkReferences": {},
  "deployedLinkReferences": {}
}