{
  "_format": "hh-sol-artifact-1",
  "contractName": "BankERC20Simple",
  "sourceName": "contracts/BankERC20Simple.sol",
  "abi": [
    {
      "inputs": [
        {
          "internalType": "string",
          "name": "name_",
          "type": "string"
        },
        {
          "internalType": "string",
          "name": "symbol_",
          "type": "string"
        },
        {
          "internalType": "uint8",
          "name": "decimals_",
          "type": "uint8"
        },
        {
          "internalType": "address",
          "name": "bankPrecompile",
          "type": "address"
        }
      ],
      "stateMutability": "nonpayable",
      "type": "constructor"
    },
    {
      "inputs": [
        {
          "internalType": "address",
          "name": "spender",
          "type": "address"
        },
        {
          "internalType": "uint256",
          "name": "allowance",
          "type": "uint256"
        },
        {
          "internalType": "uint256",
          "name": "needed",
          "type": "uint256"
        }
      ],
      "name": "ERC20InsufficientAllowance",
      "type": "error"
    },
    {
      "inputs": [
        {
          "internalType": "address",
          "name": "sender",
          "type": "address"
        },
        {
          "internalType": "uint256",
          "name": "balance",
          "type": "uint256"
        },
        {
          "internalType": "uint256",
          "name": "needed",
          "type": "uint256"
        }
      ],
      "name": "ERC20InsufficientBalance",
      "type": "error"
    },
    {
      "inputs": [
        {
          "internalType": "address",
          "name": "approver",
          "type": "address"
        }
      ],
      "name": "ERC20InvalidApprover",
      "type": "error"
    },
    {
      "inputs": [
        {
          "internalType": "address",
          "name": "receiver",
          "type": "address"
        }
      ],
      "name": "ERC20InvalidReceiver",
      "type": "error"
    },
    {
      "inputs": [
        {
          "internalType": "address",
          "name": "sender",
          "type": "address"
        }
      ],
      "name": "ERC20InvalidSender",
      "type": "error"
    },
    {
      "inputs": [
        {
          "internalType": "address",
          "name": "spender",
          "type": "address"
        }
      ],
      "name": "ERC20InvalidSpender",
      "type": "error"
    },
    {
      "anonymous": false,
      "inputs": [
        {
          "indexed": true,
          "internalType": "address",
          "name": "owner",
          "type": "address"
        },
        {
          "indexed": true,
          "internalType": "address",
          "name": "spender",
          "type": "address"
        },
        {
          "indexed": false,
          "internalType": "uint256",
          "name": "value",
          "type": "uint256"
        }
      ],
      "name": "Approval",
      "type": "event"
    },
    {
      "anonymous": false,
      "inputs": [
        {
          "indexed": true,
          "internalType": "address",
          "name": "from",
          "type": "address"
        },
        {
          "indexed": true,
          "internalType": "address",
          "name": "to",
          "type": "address"
        },
        {
          "indexed": false,
          "internalType": "uint256",
          "name": "value",
          "type": "uint256"
        }
      ],
      "name": "Transfer",
      "type": "event"
    },
    {
      "inputs": [
        {
          "internalType": "address",
          "name": "owner",
          "type": "address"
        },
        {
          "internalType": "address",
          "name": "spender",
          "type": "address"
        }
      ],
      "name": "allowance",
      "outputs": [
        {
          "internalType": "uint256",
          "name": "",
          "type": "uint256"
        }
      ],
      "stateMutability": "view",
      "type": "function"
    },
    {
      "inputs": [
        {
          "internalType": "address",
          "name": "spender",
          "type": "address"
        },
        {
          "internalType": "uint256",
          "name": "value",
          "type": "uint256"
        }
      ],
      "name": "approve",
      "outputs": [
        {
          "internalType": "bool",
          "name": "",
          "type": "bool"
        }
      ],
      "stateMutability": "nonpayable",
      "type": "function"
    },
    {
      "inputs": [
        {
          "internalType": "address",
          "name": "account",
          "type": "address"
        }
      ],
      "name": "balanceOf",
      "outputs": [
        {
          "internalType": "uint256",
          "name": "",
          "type": "uint256"
        }
      ],
      "stateMutability": "view",
      "type": "function"
    },
    {
      "inputs": [],
      "name": "bank",
      "outputs": [
        {
          "internalType": "contract IBankModule",
          "name": "",
          "type": "address"
        }
      ],
      "stateMutability": "view",
      "type": "function"
    },
    {
      "inputs": [
        {
          "internalType": "uint256",
          "name": "amount",
          "type": "uint256"
        }
      ],
      "name": "burn",
      "outputs": [],
      "stateMutability": "nonpayable",
      "type": "function"
    },
    {
      "inputs": [
        {
          "internalType": "address",
          "name": "account",
          "type": "address"
        },
        {
          "internalType": "uint256",
          "name": "amount",
          "type": "uint256"
        }
      ],
      "name": "burnFrom",
      "outputs": [],
      "stateMutability": "nonpayable",
      "type": "function"
    },
    {
      "inputs": [],
      "name": "decimals",
      "outputs": [
        {
          "internalType": "uint8",
          "name": "",
          "type": "uint8"
        }
      ],
      "stateMutability": "view",
      "type": "function"
    },
    {
      "inputs": [],
      "name": "initializeMetadata",
      "outputs": [
        {
          "internalType": "bool",
          "name": "",
          "type": "bool"
        }
      ],
      "stateMutability": "nonpayable",
      "type": "function"
    },
    {
      "inputs": [
        {
          "internalType": "address",
          "name": "to",
          "type": "address"
        },
        {
          "internalType": "uint256",
          "name": "amount",
          "type": "uint256"
        }
      ],
      "name": "mint",
      "outputs": [],
      "stateMutability": "payable",
      "type": "function"
    },
    {
      "inputs": [],
      "name": "name",
      "outputs": [
        {
          "internalType": "string",
          "name": "",
          "type": "string"
        }
      ],
      "stateMutability": "view",
      "type": "function"
    },
    {
      "inputs": [],
      "name": "symbol",
      "outputs": [
        {
          "internalType": "string",
          "name": "",
          "type": "string"
        }
      ],
      "stateMutability": "view",
      "type": "function"
    },
    {
      "inputs": [],
      "name": "totalSupply",
      "outputs": [
        {
          "internalType": "uint256",
          "name": "",
          "type": "uint256"
        }
      ],
      "stateMutability": "view",
      "type": "function"
    },
    {
      "inputs": [
        {
          "internalType": "address",
          "name": "to",
          "type": "address"
        },
        {
          "internalType": "uint256",
          "name": "value",
          "type": "uint256"
        }
      ],
      "name": "transfer",
      "outputs": [
        {
          "internalType": "bool",
          "name": "",
          "type": "bool"
        }
      ],
      "stateMutability": "nonpayable",
      "type": "function"
    },
    {
      "inputs": [
        {
          "internalType": "address",
          "name": "from",
          "type": "address"
        },
        {
          "internalType": "address",
          "name": "to",
          "type": "address"
        },
        {
          "internalType": "uint256",
          "name": "value",
          "type": "uint256"
        }
      ],
      "name": "transferFrom",
      "outputs": [
        {
          "internalType": "bool",
          "name": "",
          "type": "bool"
        }
      ],
      "stateMutability": "nonpayable",
      "type": "function"
    }
  ],
  "bytecode": "0x60a06040523480156200001157600080fd5b506040516200118438038062001184833981016040819052620000349162000144565b8383600362000044838262000277565b50600462000053828262000277565b5050506001600160a01b03166080526005805460ff191660ff9290921691909117905550620003439050565b634e487b7160e01b600052604160045260246000fd5b600082601f830112620000a757600080fd5b81516001600160401b0380821115620000c457620000c46200007f565b604051601f8301601f19908116603f01168101908282118183101715620000ef57620000ef6200007f565b816040528381526020925086838588010111156200010c57600080fd5b600091505b8382101562000130578582018301518183018401529082019062000111565b600093810190920192909252949350505050565b600080600080608085870312156200015b57600080fd5b84516001600160401b03808211156200017357600080fd5b620001818883890162000095565b955060208701519150808211156200019857600080fd5b50620001a78782880162000095565b935050604085015160ff81168114620001bf57600080fd5b60608601519092506001600160a01b0381168114620001dd57600080fd5b939692955090935050565b600181811c90821680620001fd57607f821691505b6020821081036200021e57634e487b7160e01b600052602260045260246000fd5b50919050565b601f8211156200027257600081815260208120601f850160051c810160208610156200024d5750805b601f850160051c820191505b818110156200026e5782815560010162000259565b5050505b505050565b81516001600160401b038111156200029357620002936200007f565b620002ab81620002a48454620001e8565b8462000224565b602080601f831160018114620002e35760008415620002ca5750858301515b600019600386901b1c1916600185901b1785556200026e565b600085815260208120601f198616915b828110156200031457888601518255948401946001909101908401620002f3565b5085821015620003335787850151600019600388901b60f8161c191681555b5050505050600190811b01905550565b608051610de66200039e60003960008181610230015281816103b501528181610496015281816104e2015281816105ad015281816105dd01528181610695015281816106e1015281816109c10152610a150152610de66000f3fe6080604052600436106100dd5760003560e01c806342966c681161007f57806379cc67901161005957806379cc67901461026a57806395d89b411461028a578063a9059cbb1461029f578063dd62ed3e146102bf57600080fd5b806342966c68146101c857806370a08231146101e857806376cdb03b1461021e57600080fd5b806318160ddd116100bb57806318160ddd1461015257806323b872dd14610171578063313ce5671461019157806340c10f19146101b357600080fd5b806306fdde03146100e2578063095ea7b31461010d5780630d44a9631461013d575b600080fd5b3480156100ee57600080fd5b506100f7610305565b6040516101049190610bf7565b60405180910390f35b34801561011957600080fd5b5061012d610128366004610c2d565b610397565b6040519015158152602001610104565b34801561014957600080fd5b5061012d6103b1565b34801561015e57600080fd5b506002545b604051908152602001610104565b34801561017d57600080fd5b5061012d61018c366004610c57565b61045e565b34801561019d57600080fd5b5060055460405160ff9091168152602001610104565b6101c66101c1366004610c2d565b610482565b005b3480156101d457600080fd5b506101c66101e3366004610c93565b610599565b3480156101f457600080fd5b50610163610203366004610cac565b6001600160a01b031660009081526020819052604090205490565b34801561022a57600080fd5b506102527f000000000000000000000000000000000000000000000000000000000000000081565b6040516001600160a01b039091168152602001610104565b34801561027657600080fd5b506101c6610285366004610c2d565b610676565b34801561029657600080fd5b506100f7610750565b3480156102ab57600080fd5b5061012d6102ba366004610c2d565b61075f565b3480156102cb57600080fd5b506101636102da366004610cc7565b6001600160a01b03918216600090815260016020908152604080832093909416825291909152205490565b60606003805461031490610cfa565b80601f016020809104026020016040519081016040528092919081815260200182805461034090610cfa565b801561038d5780601f106103625761010080835404028352916020019161038d565b820191906000526020600020905b81548152906001019060200180831161037057829003601f168201915b5050505050905090565b6000336103a581858561076d565b60019150505b92915050565b60007f00000000000000000000000000000000000000000000000000000000000000006001600160a01b03166337d2c2f46103ea610305565b6103f2610750565b60055460ff166040518463ffffffff1660e01b815260040161041693929190610d34565b6020604051808303816000875af1158015610435573d6000803e3d6000fd5b505050506040513d601f19601f820116820180604052508101906104599190610d6d565b905090565b60003361046c85828561077a565b6104778585856107f9565b506001949350505050565b61048c8282610858565b6001600160a01b037f0000000000000000000000000000000000000000000000000000000000000000163b15610595576040516340c10f1960e01b81526001600160a01b038381166004830152602482018390527f000000000000000000000000000000000000000000000000000000000000000016906340c10f1990349060440160206040518083038185885af193505050508015610549575060408051601f3d908101601f1916820190925261054691810190610d6d565b60015b1561059557806105935760405162461bcd60e51b815260206004820152601060248201526f10985b9ac81b5a5b9d0819985a5b195960821b60448201526064015b60405180910390fd5b505b5050565b6105a3338261088e565b6001600160a01b037f0000000000000000000000000000000000000000000000000000000000000000163b15610673576001600160a01b037f000000000000000000000000000000000000000000000000000000000000000016639dc29fac336040516001600160e01b031960e084901b1681526001600160a01b039091166004820152602481018490526044016020604051808303816000875af192505050801561066c575060408051601f3d908101601f1916820190925261066991810190610d6d565b60015b1561067357505b50565b61068182338361077a565b61068b828261088e565b6001600160a01b037f0000000000000000000000000000000000000000000000000000000000000000163b1561059557604051632770a7eb60e21b81526001600160a01b038381166004830152602482018390527f00000000000000000000000000000000000000000000000000000000000000001690639dc29fac906044016020604051808303816000875af1925050508015610746575060408051601f3d908101601f1916820190925261074391810190610d6d565b60015b1561059557505050565b60606004805461031490610cfa565b6000336103a58185856107f9565b61059383838360016108c4565b6001600160a01b038381166000908152600160209081526040808320938616835292905220546000198110156107f357818110156107e457604051637dc7a0d960e11b81526001600160a01b0384166004820152602481018290526044810183905260640161058a565b6107f3848484840360006108c4565b50505050565b6001600160a01b03831661082357604051634b637e8f60e11b81526000600482015260240161058a565b6001600160a01b03821661084d5760405163ec442f0560e01b81526000600482015260240161058a565b610593838383610999565b6001600160a01b0382166108825760405163ec442f0560e01b81526000600482015260240161058a565b61059560008383610999565b6001600160a01b0382166108b857604051634b637e8f60e11b81526000600482015260240161058a565b61059582600083610999565b6001600160a01b0384166108ee5760405163e602df0560e01b81526000600482015260240161058a565b6001600160a01b03831661091857604051634a1406b160e11b81526000600482015260240161058a565b6001600160a01b03808516600090815260016020908152604080832093871683529290522082905580156107f357826001600160a01b0316846001600160a01b03167f8c5be1e5ebec7d5bd14f71427d1e84f3dd0314c0f7b2291e5b200ac8c7c3b9258460405161098b91815260200190565b60405180910390a350505050565b6001600160a01b03831615610a81576001600160a01b03821615610a81576001600160a01b037f0000000000000000000000000000000000000000000000000000000000000000163b15610a81576040516317d5759960e31b81526001600160a01b0384811660048301528381166024830152604482018390527f0000000000000000000000000000000000000000000000000000000000000000169063beabacc8906064016020604051808303816000875af1925050508015610a7a575060408051601f3d908101601f19168201909252610a7791810190610d6d565b60015b15610a8157505b6105938383836001600160a01b038316610ab2578060026000828254610aa79190610d8f565b90915550610b249050565b6001600160a01b03831660009081526020819052604090205481811015610b055760405163391434e360e21b81526001600160a01b0385166004820152602481018290526044810183905260640161058a565b6001600160a01b03841660009081526020819052604090209082900390555b6001600160a01b038216610b4057600280548290039055610b5f565b6001600160a01b03821660009081526020819052604090208054820190555b816001600160a01b0316836001600160a01b03167fddf252ad1be2c89b69c2b068fc378daa952ba7f163c4a11628f55a4df523b3ef83604051610ba491815260200190565b60405180910390a3505050565b6000815180845260005b81811015610bd757602081850181015186830182015201610bbb565b506000602082860101526020601f19601f83011685010191505092915050565b602081526000610c0a6020830184610bb1565b9392505050565b80356001600160a01b0381168114610c2857600080fd5b919050565b60008060408385031215610c4057600080fd5b610c4983610c11565b946020939093013593505050565b600080600060608486031215610c6c57600080fd5b610c7584610c11565b9250610c8360208501610c11565b9150604084013590509250925092565b600060208284031215610ca557600080fd5b5035919050565b600060208284031215610cbe57600080fd5b610c0a82610c11565b60008060408385031215610cda57600080fd5b610ce383610c11565b9150610cf160208401610c11565b90509250929050565b600181811c90821680610d0e57607f821691505b602082108103610d2e57634e487b7160e01b600052602260045260246000fd5b50919050565b606081526000610d476060830186610bb1565b8281036020840152610d598186610bb1565b91505060ff83166040830152949350505050565b600060208284031215610d7f57600080fd5b81518015158114610c0a57600080fd5b808201808211156103ab57634e487b7160e01b600052601160045260246000fdfea2646970667358221220f63c71a4ce085e447ef2d684f90d1b42a27c12bdf0a3d917576e80e0f5f4d92e64736f6c63430008140033",
  "linkReferences": {},
  "deployedLinkReferences": {}
}