{
  "_format": "hh-sol-artifact-1",
  "contractName": "BankERC20",
  "sourceName": "contracts/BankERC20.sol",
  "abi": [
    {
      "inputs": [
        {
          "internalType": "string",
          "name": "name_",
          "type": "string"
        },
        {
          "internalType": "string",
          "name": "symbol_",
          "type": "string"
        },
        {
          "internalType": "uint8",
          "name": "decimals_",
          "type": "uint8"
        },
        {
          "internalType": "address",
          "name": "bankPrecompile",
          "type": "address"
        }
      ],
      "stateMutability": "nonpayable",
      "type": "constructor"
    },
    {
      "inputs": [
        {
          "internalType": "address",
          "name": "spender",
          "type": "address"
        },
        {
          "internalType": "uint256",
          "name": "allowance",
          "type": "uint256"
        },
        {
          "internalType": "uint256",
          "name": "needed",
          "type": "uint256"
        }
      ],
      "name": "ERC20InsufficientAllowance",
      "type": "error"
    },
    {
      "inputs": [
        {
          "internalType": "address",
          "name": "sender",
          "type": "address"
        },
        {
          "internalType": "uint256",
          "name": "balance",
          "type": "uint256"
        },
        {
          "internalType": "uint256",
          "name": "needed",
          "type": "uint256"
        }
      ],
      "name": "ERC20InsufficientBalance",
      "type": "error"
    },
    {
      "inputs": [
        {
          "internalType": "address",
          "name": "approver",
          "type": "address"
        }
      ],
      "name": "ERC20InvalidApprover",
      "type": "error"
    },
    {
      "inputs": [
        {
          "internalType": "address",
          "name": "receiver",
          "type": "address"
        }
      ],
      "name": "ERC20InvalidReceiver",
      "type": "error"
    },
    {
      "inputs": [
        {
          "internalType": "address",
          "name": "sender",
          "type": "address"
        }
      ],
      "name": "ERC20InvalidSender",
      "type": "error"
    },
    {
      "inputs": [
        {
          "internalType": "address",
          "name": "spender",
          "type": "address"
        }
      ],
      "name": "ERC20InvalidSpender",
      "type": "error"
    },
    {
      "anonymous": false,
      "inputs": [
        {
          "indexed": true,
          "internalType": "address",
          "name": "owner",
          "type": "address"
        },
        {
          "indexed": true,
          "internalType": "address",
          "name": "spender",
          "type": "address"
        },
        {
          "indexed": false,
          "internalType": "uint256",
          "name": "value",
          "type": "uint256"
        }
      ],
      "name": "Approval",
      "type": "event"
    },
    {
      "anonymous": false,
      "inputs": [
        {
          "indexed": true,
          "internalType": "address",
          "name": "from",
          "type": "address"
        },
        {
          "indexed": true,
          "internalType": "address",
          "name": "to",
          "type": "address"
        },
        {
          "indexed": false,
          "internalType": "uint256",
          "name": "value",
          "type": "uint256"
        }
      ],
      "name": "Transfer",
      "type": "event"
    },
    {
      "inputs": [
        {
          "internalType": "address",
          "name": "owner",
          "type": "address"
        },
        {
          "internalType": "address",
          "name": "spender",
          "type": "address"
        }
      ],
      "name": "allowance",
      "outputs": [
        {
          "internalType": "uint256",
          "name": "",
          "type": "uint256"
        }
      ],
      "stateMutability": "view",
      "type": "function"
    },
    {
      "inputs": [
        {
          "internalType": "address",
          "name": "spender",
          "type": "address"
        },
        {
          "internalType": "uint256",
          "name": "value",
          "type": "uint256"
        }
      ],
      "name": "approve",
      "outputs": [
        {
          "internalType": "bool",
          "name": "",
          "type": "bool"
        }
      ],
      "stateMutability": "nonpayable",
      "type": "function"
    },
    {
      "inputs": [
        {
          "internalType": "address",
          "name": "account",
          "type": "address"
        }
      ],
      "name": "balanceOf",
      "outputs": [
        {
          "internalType": "uint256",
          "name": "",
          "type": "uint256"
        }
      ],
      "stateMutability": "view",
      "type": "function"
    },
    {
      "inputs": [],
      "name": "bank",
      "outputs": [
        {
          "internalType": "contract IBankModule",
          "name": "",
          "type": "address"
        }
      ],
      "stateMutability": "view",
      "type": "function"
    },
    {
      "inputs": [
        {
          "internalType": "uint256",
          "name": "amount",
          "type": "uint256"
        }
      ],
      "name": "burn",
      "outputs": [],
      "stateMutability": "nonpayable",
      "type": "function"
    },
    {
      "inputs": [
        {
          "internalType": "address",
          "name": "account",
          "type": "address"
        },
        {
          "internalType": "uint256",
          "name": "amount",
          "type": "uint256"
        }
      ],
      "name": "burnFrom",
      "outputs": [],
      "stateMutability": "nonpayable",
      "type": "function"
    },
    {
      "inputs": [],
      "name": "decimals",
      "outputs": [
        {
          "internalType": "uint8",
          "name": "",
          "type": "uint8"
        }
      ],
      "stateMutability": "view",
      "type": "function"
    },
    {
      "inputs": [
        {
          "internalType": "address",
          "name": "to",
          "type": "address"
        },
        {
          "internalType": "uint256",
          "name": "amount",
          "type": "uint256"
        }
      ],
      "name": "mint",
      "outputs": [],
      "stateMutability": "payable",
      "type": "function"
    },
    {
      "inputs": [],
      "name": "name",
      "outputs": [
        {
          "internalType": "string",
          "name": "",
          "type": "string"
        }
      ],
      "stateMutability": "view",
      "type": "function"
    },
    {
      "inputs": [],
      "name": "symbol",
      "outputs": [
        {
          "internalType": "string",
          "name": "",
          "type": "string"
        }
      ],
      "stateMutability": "view",
      "type": "function"
    },
    {
      "inputs": [],
      "name": "totalSupply",
      "outputs": [
        {
          "internalType": "uint256",
          "name": "",
          "type": "uint256"
        }
      ],
      "stateMutability": "view",
      "type": "function"
    },
    {
      "inputs": [
        {
          "internalType": "address",
          "name": "to",
          "type": "address"
        },
        {
          "internalType": "uint256",
          "name": "value",
          "type": "uint256"
        }
      ],
      "name": "transfer",
      "outputs": [
        {
          "internalType": "bool",
          "name": "",
          "type": "bool"
        }
      ],
      "stateMutability": "nonpayable",
      "type": "function"
    },
    {
      "inputs": [
        {
          "internalType": "address",
          "name": "from",
          "type": "address"
        },
        {
          "internalType": "address",
          "name": "to",
          "type": "address"
        },
        {
          "internalType": "uint256",
          "name": "value",
          "type": "uint256"
        }
      ],
      "name": "transferFrom",
      "outputs": [
        {
          "internalType": "bool",
          "name": "",
          "type": "bool"
        }
      ],
      "stateMutability": "nonpayable",
      "type": "function"
    }
  ],
  "bytecode": "0x60a06040523480156200001157600080fd5b5060405162001050380380620010508339810160408190526200003491620001b9565b83836003620000448382620002ec565b506004620000538282620002ec565b5050506001600160a01b03811660808190526005805460ff191660ff8516179055604051630df4b0bd60e21b81526337d2c2f4906200009b90879087908790600401620003e6565b6020604051808303816000875af1158015620000bb573d6000803e3d6000fd5b505050506040513d601f19601f82011682018060405250810190620000e1919062000423565b50505050506200044e565b634e487b7160e01b600052604160045260246000fd5b60005b838110156200011f57818101518382015260200162000105565b50506000910152565b600082601f8301126200013a57600080fd5b81516001600160401b0380821115620001575762000157620000ec565b604051601f8301601f19908116603f01168101908282118183101715620001825762000182620000ec565b816040528381528660208588010111156200019c57600080fd5b620001af84602083016020890162000102565b9695505050505050565b60008060008060808587031215620001d057600080fd5b84516001600160401b0380821115620001e857600080fd5b620001f68883890162000128565b955060208701519150808211156200020d57600080fd5b506200021c8782880162000128565b935050604085015160ff811681146200023457600080fd5b60608601519092506001600160a01b03811681146200025257600080fd5b939692955090935050565b600181811c908216806200027257607f821691505b6020821081036200029357634e487b7160e01b600052602260045260246000fd5b50919050565b601f821115620002e757600081815260208120601f850160051c81016020861015620002c25750805b601f850160051c820191505b81811015620002e357828155600101620002ce565b5050505b505050565b81516001600160401b03811115620003085762000308620000ec565b62000320816200031984546200025d565b8462000299565b602080601f8311600181146200035857600084156200033f5750858301515b600019600386901b1c1916600185901b178555620002e3565b600085815260208120601f198616915b82811015620003895788860151825594840194600190910190840162000368565b5085821015620003a85787850151600019600388901b60f8161c191681555b5050505050600190811b01905550565b60008151808452620003d281602086016020860162000102565b601f01601f19169290920160200192915050565b606081526000620003fb6060830186620003b8565b82810360208401526200040f8186620003b8565b91505060ff83166040830152949350505050565b6000602082840312156200043657600080fd5b815180151581146200044757600080fd5b9392505050565b608051610bca6200048660003960008181610200015281816103d50152818161045d01528181610533015261083a0152610bca6000f3fe6080604052600436106100c25760003560e01c806342966c681161007f57806379cc67901161005957806379cc67901461023a57806395d89b411461025a578063a9059cbb1461026f578063dd62ed3e1461028f57600080fd5b806342966c681461019857806370a08231146101b857806376cdb03b146101ee57600080fd5b806306fdde03146100c7578063095ea7b3146100f257806318160ddd1461012257806323b872dd14610141578063313ce5671461016157806340c10f1914610183575b600080fd5b3480156100d357600080fd5b506100dc6102d5565b6040516100e991906109d9565b60405180910390f35b3480156100fe57600080fd5b5061011261010d366004610a43565b610367565b60405190151581526020016100e9565b34801561012e57600080fd5b506002545b6040519081526020016100e9565b34801561014d57600080fd5b5061011261015c366004610a6d565b610381565b34801561016d57600080fd5b5060055460405160ff90911681526020016100e9565b610196610191366004610a43565b6103a5565b005b3480156101a457600080fd5b506101966101b3366004610aa9565b610449565b3480156101c457600080fd5b506101336101d3366004610ac2565b6001600160a01b031660009081526020819052604090205490565b3480156101fa57600080fd5b506102227f000000000000000000000000000000000000000000000000000000000000000081565b6040516001600160a01b0390911681526020016100e9565b34801561024657600080fd5b50610196610255366004610a43565b6104f8565b34801561026657600080fd5b506100dc6105a0565b34801561027b57600080fd5b5061011261028a366004610a43565b6105af565b34801561029b57600080fd5b506101336102aa366004610ae4565b6001600160a01b03918216600090815260016020908152604080832093909416825291909152205490565b6060600380546102e490610b17565b80601f016020809104026020016040519081016040528092919081815260200182805461031090610b17565b801561035d5780601f106103325761010080835404028352916020019161035d565b820191906000526020600020905b81548152906001019060200180831161034057829003601f168201915b5050505050905090565b6000336103758185856105bd565b60019150505b92915050565b60003361038f8582856105ca565b61039a85858561064e565b506001949350505050565b6103af82826106ad565b6040516340c10f1960e01b81526001600160a01b038381166004830152602482018390527f000000000000000000000000000000000000000000000000000000000000000016906340c10f1990349060440160206040518083038185885af115801561041f573d6000803e3d6000fd5b50505050506040513d601f19601f820116820180604052508101906104449190610b51565b505050565b61045333826106e3565b6001600160a01b037f000000000000000000000000000000000000000000000000000000000000000016639dc29fac336040516001600160e01b031960e084901b1681526001600160a01b039091166004820152602481018490526044016020604051808303816000875af11580156104d0573d6000803e3d6000fd5b505050506040513d601f19601f820116820180604052508101906104f49190610b51565b5050565b6105038233836105ca565b61050d82826106e3565b604051632770a7eb60e21b81526001600160a01b038381166004830152602482018390527f00000000000000000000000000000000000000000000000000000000000000001690639dc29fac906044016020604051808303816000875af115801561057c573d6000803e3d6000fd5b505050506040513d601f19601f820116820180604052508101906104449190610b51565b6060600480546102e490610b17565b60003361037581858561064e565b6104448383836001610719565b6001600160a01b03838116600090815260016020908152604080832093861683529290522054600019811015610648578181101561063957604051637dc7a0d960e11b81526001600160a01b038416600482015260248101829052604481018390526064015b60405180910390fd5b61064884848484036000610719565b50505050565b6001600160a01b03831661067857604051634b637e8f60e11b815260006004820152602401610630565b6001600160a01b0382166106a25760405163ec442f0560e01b815260006004820152602401610630565b6104448383836107ee565b6001600160a01b0382166106d75760405163ec442f0560e01b815260006004820152602401610630565b6104f4600083836107ee565b6001600160a01b03821661070d57604051634b637e8f60e11b815260006004820152602401610630565b6104f4826000836107ee565b6001600160a01b0384166107435760405163e602df0560e01b815260006004820152602401610630565b6001600160a01b03831661076d57604051634a1406b160e11b815260006004820152602401610630565b6001600160a01b038085166000908152600160209081526040808320938716835292905220829055801561064857826001600160a01b0316846001600160a01b03167f8c5be1e5ebec7d5bd14f71427d1e84f3dd0314c0f7b2291e5b200ac8c7c3b925846040516107e091815260200190565b60405180910390a350505050565b6001600160a01b038316156108a9576001600160a01b038216156108a9576040516317d5759960e31b81526001600160a01b0384811660048301528381166024830152604482018390527f0000000000000000000000000000000000000000000000000000000000000000169063beabacc8906064016020604051808303816000875af1158015610883573d6000803e3d6000fd5b505050506040513d601f19601f820116820180604052508101906108a79190610b51565b505b6104448383836001600160a01b0383166108da5780600260008282546108cf9190610b73565b9091555061094c9050565b6001600160a01b0383166000908152602081905260409020548181101561092d5760405163391434e360e21b81526001600160a01b03851660048201526024810182905260448101839052606401610630565b6001600160a01b03841660009081526020819052604090209082900390555b6001600160a01b03821661096857600280548290039055610987565b6001600160a01b03821660009081526020819052604090208054820190555b816001600160a01b0316836001600160a01b03167fddf252ad1be2c89b69c2b068fc378daa952ba7f163c4a11628f55a4df523b3ef836040516109cc91815260200190565b60405180910390a3505050565b600060208083528351808285015260005b81811015610a06578581018301518582016040015282016109ea565b506000604082860101526040601f19601f8301168501019250505092915050565b80356001600160a01b0381168114610a3e57600080fd5b919050565b60008060408385031215610a5657600080fd5b610a5f83610a27565b946020939093013593505050565b600080600060608486031215610a8257600080fd5b610a8b84610a27565b9250610a9960208501610a27565b9150604084013590509250925092565b600060208284031215610abb57600080fd5b5035919050565b600060208284031215610ad457600080fd5b610add82610a27565b9392505050565b60008060408385031215610af757600080fd5b610b0083610a27565b9150610b0e60208401610a27565b90509250929050565b600181811c90821680610b2b57607f821691505b602082108103610b4b57634e487b7160e01b600052602260045260246000fd5b50919050565b600060208284031215610b6357600080fd5b81518015158114610add57600080fd5b8082018082111561037b57634e487b7160e01b600052601160045260246000fdfea264697066735822122093bbebcd0ee77e31c6ea3dd786e5f8b6120a07218c4ceb7cfc10f2e3c116dab864736f6c63430008140033",
  "linkReferences": {},
  "deployedLinkReferences": {}
}