{
  "_format": "hh-sol-artifact-1",
  "contractName": "MyUSDCSimple",
  "sourceName": "contracts/MyUSDCSimple.sol",
  "abi": [
    {
      "inputs": [
        {
          "internalType": "address",
          "name": "bankPrecompile",
          "type": "address"
        },
        {
          "internalType": "address",
          "name": "initialOwner",
          "type": "address"
        }
      ],
      "stateMutability": "nonpayable",
      "type": "constructor"
    },
    {
      "inputs": [
        {
          "internalType": "address",
          "name": "spender",
          "type": "address"
        },
        {
          "internalType": "uint256",
          "name": "allowance",
          "type": "uint256"
        },
        {
          "internalType": "uint256",
          "name": "needed",
          "type": "uint256"
        }
      ],
      "name": "ERC20InsufficientAllowance",
      "type": "error"
    },
    {
      "inputs": [
        {
          "internalType": "address",
          "name": "sender",
          "type": "address"
        },
        {
          "internalType": "uint256",
          "name": "balance",
          "type": "uint256"
        },
        {
          "internalType": "uint256",
          "name": "needed",
          "type": "uint256"
        }
      ],
      "name": "ERC20InsufficientBalance",
      "type": "error"
    },
    {
      "inputs": [
        {
          "internalType": "address",
          "name": "approver",
          "type": "address"
        }
      ],
      "name": "ERC20InvalidApprover",
      "type": "error"
    },
    {
      "inputs": [
        {
          "internalType": "address",
          "name": "receiver",
          "type": "address"
        }
      ],
      "name": "ERC20InvalidReceiver",
      "type": "error"
    },
    {
      "inputs": [
        {
          "internalType": "address",
          "name": "sender",
          "type": "address"
        }
      ],
      "name": "ERC20InvalidSender",
      "type": "error"
    },
    {
      "inputs": [
        {
          "internalType": "address",
          "name": "spender",
          "type": "address"
        }
      ],
      "name": "ERC20InvalidSpender",
      "type": "error"
    },
    {
      "inputs": [
        {
          "internalType": "address",
          "name": "owner",
          "type": "address"
        }
      ],
      "name": "OwnableInvalidOwner",
      "type": "error"
    },
    {
      "inputs": [
        {
          "internalType": "address",
          "name": "account",
          "type": "address"
        }
      ],
      "name": "OwnableUnauthorizedAccount",
      "type": "error"
    },
    {
      "anonymous": false,
      "inputs": [
        {
          "indexed": true,
          "internalType": "address",
          "name": "owner",
          "type": "address"
        },
        {
          "indexed": true,
          "internalType": "address",
          "name": "spender",
          "type": "address"
        },
        {
          "indexed": false,
          "internalType": "uint256",
          "name": "value",
          "type": "uint256"
        }
      ],
      "name": "Approval",
      "type": "event"
    },
    {
      "anonymous": false,
      "inputs": [
        {
          "indexed": true,
          "internalType": "address",
          "name": "account",
          "type": "address"
        }
      ],
      "name": "Blacklisted",
      "type": "event"
    },
    {
      "anonymous": false,
      "inputs": [
        {
          "indexed": true,
          "internalType": "address",
          "name": "previousOwner",
          "type": "address"
        },
        {
          "indexed": true,
          "internalType": "address",
          "name": "newOwner",
          "type": "address"
        }
      ],
      "name": "OwnershipTransferred",
      "type": "event"
    },
    {
      "anonymous": false,
      "inputs": [],
      "name": "Paused",
      "type": "event"
    },
    {
      "anonymous": false,
      "inputs": [
        {
          "indexed": true,
          "internalType": "address",
          "name": "from",
          "type": "address"
        },
        {
          "indexed": true,
          "internalType": "address",
          "name": "to",
          "type": "address"
        },
        {
          "indexed": false,
          "internalType": "uint256",
          "name": "value",
          "type": "uint256"
        }
      ],
      "name": "Transfer",
      "type": "event"
    },
    {
      "anonymous": false,
      "inputs": [
        {
          "indexed": true,
          "internalType": "address",
          "name": "account",
          "type": "address"
        }
      ],
      "name": "Unblacklisted",
      "type": "event"
    },
    {
      "anonymous": false,
      "inputs": [],
      "name": "Unpaused",
      "type": "event"
    },
    {
      "inputs": [
        {
          "internalType": "address",
          "name": "owner",
          "type": "address"
        },
        {
          "internalType": "address",
          "name": "spender",
          "type": "address"
        }
      ],
      "name": "allowance",
      "outputs": [
        {
          "internalType": "uint256",
          "name": "",
          "type": "uint256"
        }
      ],
      "stateMutability": "view",
      "type": "function"
    },
    {
      "inputs": [
        {
          "internalType": "address",
          "name": "spender",
          "type": "address"
        },
        {
          "internalType": "uint256",
          "name": "amount",
          "type": "uint256"
        }
      ],
      "name": "approve",
      "outputs": [
        {
          "internalType": "bool",
          "name": "",
          "type": "bool"
        }
      ],
      "stateMutability": "nonpayable",
      "type": "function"
    },
    {
      "inputs": [
        {
          "internalType": "address",
          "name": "account",
          "type": "address"
        }
      ],
      "name": "balanceOf",
      "outputs": [
        {
          "internalType": "uint256",
          "name": "",
          "type": "uint256"
        }
      ],
      "stateMutability": "view",
      "type": "function"
    },
    {
      "inputs": [],
      "name": "bank",
      "outputs": [
        {
          "internalType": "contract IBankModule",
          "name": "",
          "type": "address"
        }
      ],
      "stateMutability": "view",
      "type": "function"
    },
    {
      "inputs": [
        {
          "internalType": "address",
          "name": "account",
          "type": "address"
        }
      ],
      "name": "blacklist",
      "outputs": [],
      "stateMutability": "nonpayable",
      "type": "function"
    },
    {
      "inputs": [
        {
          "internalType": "uint256",
          "name": "amount",
          "type": "uint256"
        }
      ],
      "name": "burn",
      "outputs": [],
      "stateMutability": "nonpayable",
      "type": "function"
    },
    {
      "inputs": [
        {
          "internalType": "address",
          "name": "account",
          "type": "address"
        },
        {
          "internalType": "uint256",
          "name": "amount",
          "type": "uint256"
        }
      ],
      "name": "burnFrom",
      "outputs": [],
      "stateMutability": "nonpayable",
      "type": "function"
    },
    {
      "inputs": [],
      "name": "decimals",
      "outputs": [
        {
          "internalType": "uint8",
          "name": "",
          "type": "uint8"
        }
      ],
      "stateMutability": "view",
      "type": "function"
    },
    {
      "inputs": [],
      "name": "initializeMetadata",
      "outputs": [
        {
          "internalType": "bool",
          "name": "",
          "type": "bool"
        }
      ],
      "stateMutability": "nonpayable",
      "type": "function"
    },
    {
      "inputs": [
        {
          "internalType": "address",
          "name": "account",
          "type": "address"
        }
      ],
      "name": "isBlacklisted",
      "outputs": [
        {
          "internalType": "bool",
          "name": "",
          "type": "bool"
        }
      ],
      "stateMutability": "view",
      "type": "function"
    },
    {
      "inputs": [
        {
          "internalType": "address",
          "name": "to",
          "type": "address"
        },
        {
          "internalType": "uint256",
          "name": "amount",
          "type": "uint256"
        }
      ],
      "name": "mint",
      "outputs": [],
      "stateMutability": "payable",
      "type": "function"
    },
    {
      "inputs": [],
      "name": "name",
      "outputs": [
        {
          "internalType": "string",
          "name": "",
          "type": "string"
        }
      ],
      "stateMutability": "view",
      "type": "function"
    },
    {
      "inputs": [],
      "name": "owner",
      "outputs": [
        {
          "internalType": "address",
          "name": "",
          "type": "address"
        }
      ],
      "stateMutability": "view",
      "type": "function"
    },
    {
      "inputs": [],
      "name": "pause",
      "outputs": [],
      "stateMutability": "nonpayable",
      "type": "function"
    },
    {
      "inputs": [],
      "name": "paused",
      "outputs": [
        {
          "internalType": "bool",
          "name": "",
          "type": "bool"
        }
      ],
      "stateMutability": "view",
      "type": "function"
    },
    {
      "inputs": [],
      "name": "renounceOwnership",
      "outputs": [],
      "stateMutability": "nonpayable",
      "type": "function"
    },
    {
      "inputs": [],
      "name": "symbol",
      "outputs": [
        {
          "internalType": "string",
          "name": "",
          "type": "string"
        }
      ],
      "stateMutability": "view",
      "type": "function"
    },
    {
      "inputs": [],
      "name": "totalSupply",
      "outputs": [
        {
          "internalType": "uint256",
          "name": "",
          "type": "uint256"
        }
      ],
      "stateMutability": "view",
      "type": "function"
    },
    {
      "inputs": [
        {
          "internalType": "address",
          "name": "to",
          "type": "address"
        },
        {
          "internalType": "uint256",
          "name": "amount",
          "type": "uint256"
        }
      ],
      "name": "transfer",
      "outputs": [
        {
          "internalType": "bool",
          "name": "",
          "type": "bool"
        }
      ],
      "stateMutability": "nonpayable",
      "type": "function"
    },
    {
      "inputs": [
        {
          "internalType": "address",
          "name": "from",
          "type": "address"
        },
        {
          "internalType": "address",
          "name": "to",
          "type": "address"
        },
        {
          "internalType": "uint256",
          "name": "amount",
          "type": "uint256"
        }
      ],
      "name": "transferFrom",
      "outputs": [
        {
          "internalType": "bool",
          "name": "",
          "type": "bool"
        }
      ],
      "stateMutability": "nonpayable",
      "type": "function"
    },
    {
      "inputs": [
        {
          "internalType": "address",
          "name": "newOwner",
          "type": "address"
        }
      ],
      "name": "transferOwnership",
      "outputs": [],
      "stateMutability": "nonpayable",
      "type": "function"
    },
    {
      "inputs": [
        {
          "internalType": "address",
          "name": "account",
          "type": "address"
        }
      ],
      "name": "unblacklist",
      "outputs": [],
      "stateMutability": "nonpayable",
      "type": "function"
    },
    {
      "inputs": [],
      "name": "unpause",
      "outputs": [],
      "stateMutability": "nonpayable",
      "type": "function"
    }
  ],
  "bytecode": "0x60a06040523480156200001157600080fd5b50604051620018dd380380620018dd833981016040819052620000349162000177565b806040518060400160405280600a81526020016926bcaaa9a21021b7b4b760b11b815250604051806040016040528060058152602001646d5553444360d81b815250600685838381600390816200008c919062000254565b5060046200009b828262000254565b5050506001600160a01b039081166080526005805460ff191660ff939093169290921790915583169150620000ec905057604051631e4fbdf760e01b81526000600482015260240160405180910390fd5b620000f78162000100565b50505062000320565b600580546001600160a01b03838116610100818102610100600160a81b031985161790945560405193909204169182907f8be0079c531659141344cd1fd0a4f28419497f9722a3daafe3b4186f6b6457e090600090a35050565b80516001600160a01b03811681146200017257600080fd5b919050565b600080604083850312156200018b57600080fd5b62000196836200015a565b9150620001a6602084016200015a565b90509250929050565b634e487b7160e01b600052604160045260246000fd5b600181811c90821680620001da57607f821691505b602082108103620001fb57634e487b7160e01b600052602260045260246000fd5b50919050565b601f8211156200024f57600081815260208120601f850160051c810160208610156200022a5750805b601f850160051c820191505b818110156200024b5782815560010162000236565b5050505b505050565b81516001600160401b03811115620002705762000270620001af565b6200028881620002818454620001c5565b8462000201565b602080601f831160018114620002c05760008415620002a75750858301515b600019600386901b1c1916600185901b1785556200024b565b600085815260208120601f198616915b82811015620002f157888601518255948401946001909101908401620002d0565b5085821015620003105787850151600019600388901b60f8161c191681555b5050505050600190811b01905550565b6080516115626200037b600039600081816102f50152818161059801528181610b6401528181610bb001528181610c7001528181610ca001528181610db101528181610dfd015281816110b0015261110401526115626000f3fe6080604052600436106101405760003560e01c8063715018a6116100b657806395d89b411161006f57806395d89b4114610387578063a9059cbb1461039c578063dd62ed3e146103bc578063f2fde38b146103dc578063f9f92be4146103fc578063fe575a871461041c57600080fd5b8063715018a6146102ae57806375e3661e146102c357806376cdb03b146102e357806379cc67901461032f5780638456cb591461034f5780638da5cb5b1461036457600080fd5b8063313ce56711610108578063313ce567146101f45780633f4ba83a1461021657806340c10f191461022d57806342966c68146102405780635c975abb1461026057806370a082311461027857600080fd5b806306fdde0314610145578063095ea7b3146101705780630d44a963146101a057806318160ddd146101b557806323b872dd146101d4575b600080fd5b34801561015157600080fd5b5061015a610455565b60405161016791906112e6565b60405180910390f35b34801561017c57600080fd5b5061019061018b36600461131c565b6104e7565b6040519015158152602001610167565b3480156101ac57600080fd5b50610190610594565b3480156101c157600080fd5b506002545b604051908152602001610167565b3480156101e057600080fd5b506101906101ef366004611346565b610641565b34801561020057600080fd5b5060055460405160ff9091168152602001610167565b34801561022257600080fd5b5061022b610723565b005b61022b61023b36600461131c565b610760565b34801561024c57600080fd5b5061022b61025b366004611382565b6107d5565b34801561026c57600080fd5b5060075460ff16610190565b34801561028457600080fd5b506101c661029336600461139b565b6001600160a01b031660009081526020819052604090205490565b3480156102ba57600080fd5b5061022b610835565b3480156102cf57600080fd5b5061022b6102de36600461139b565b610849565b3480156102ef57600080fd5b506103177f000000000000000000000000000000000000000000000000000000000000000081565b6040516001600160a01b039091168152602001610167565b34801561033b57600080fd5b5061022b61034a36600461131c565b61089a565b34801561035b57600080fd5b5061022b610938565b34801561037057600080fd5b5060055461010090046001600160a01b0316610317565b34801561039357600080fd5b5061015a610978565b3480156103a857600080fd5b506101906103b736600461131c565b610987565b3480156103c857600080fd5b506101c66103d73660046113b6565b610a22565b3480156103e857600080fd5b5061022b6103f736600461139b565b610a4f565b34801561040857600080fd5b5061022b61041736600461139b565b610a8d565b34801561042857600080fd5b5061019061043736600461139b565b6001600160a01b031660009081526006602052604090205460ff1690565b606060038054610464906113e9565b80601f0160208091040260200160405190810160405280929190818152602001828054610490906113e9565b80156104dd5780601f106104b2576101008083540402835291602001916104dd565b820191906000526020600020905b8154815290600101906020018083116104c057829003601f168201915b5050505050905090565b60075460009060ff16156105165760405162461bcd60e51b815260040161050d90611423565b60405180910390fd5b3360008181526006602052604090205460ff16156105465760405162461bcd60e51b815260040161050d9061146c565b6001600160a01b038416600090815260066020526040902054849060ff16156105815760405162461bcd60e51b815260040161050d9061146c565b61058b8585610ae1565b95945050505050565b60007f00000000000000000000000000000000000000000000000000000000000000006001600160a01b03166337d2c2f46105cd610455565b6105d5610978565b60055460ff166040518463ffffffff1660e01b81526004016105f9939291906114b0565b6020604051808303816000875af1158015610618573d6000803e3d6000fd5b505050506040513d601f19601f8201168201806040525081019061063c91906114e9565b905090565b60075460009060ff16156106675760405162461bcd60e51b815260040161050d90611423565b3360008181526006602052604090205460ff16156106975760405162461bcd60e51b815260040161050d9061146c565b6001600160a01b038516600090815260066020526040902054859060ff16156106d25760405162461bcd60e51b815260040161050d9061146c565b6001600160a01b038516600090815260066020526040902054859060ff161561070d5760405162461bcd60e51b815260040161050d9061146c565b610718878787610af9565b979650505050505050565b61072b610b1d565b6007805460ff191690556040517fa45f47fdea8a1efdd9029a5691c7f759c32b7c698632b563573e155625d1693390600090a1565b60075460ff16156107835760405162461bcd60e51b815260040161050d90611423565b6001600160a01b038216600090815260066020526040902054829060ff16156107be5760405162461bcd60e51b815260040161050d9061146c565b6107c6610b1d565b6107d08383610b50565b505050565b60075460ff16156107f85760405162461bcd60e51b815260040161050d90611423565b3360008181526006602052604090205460ff16156108285760405162461bcd60e51b815260040161050d9061146c565b61083182610c5c565b5050565b61083d610b1d565b6108476000610d38565b565b610851610b1d565b6001600160a01b038116600081815260066020526040808220805460ff19169055517f7534c63860313c46c473e4e98328f37017e9674e2162faf1a3ad7a96236c3b7b9190a250565b60075460ff16156108bd5760405162461bcd60e51b815260040161050d90611423565b6001600160a01b038216600090815260066020526040902054829060ff16156108f85760405162461bcd60e51b815260040161050d9061146c565b3360008181526006602052604090205460ff16156109285760405162461bcd60e51b815260040161050d9061146c565b6109328484610d92565b50505050565b610940610b1d565b6007805460ff191660011790556040517f9e87fac88ff661f02d44f95383c817fece4bce600a3dab7a54406878b965e75290600090a1565b606060048054610464906113e9565b60075460009060ff16156109ad5760405162461bcd60e51b815260040161050d90611423565b3360008181526006602052604090205460ff16156109dd5760405162461bcd60e51b815260040161050d9061146c565b6001600160a01b038416600090815260066020526040902054849060ff1615610a185760405162461bcd60e51b815260040161050d9061146c565b61058b8585610e6c565b6001600160a01b038083166000908152600160209081526040808320938516835292905220545b92915050565b610a57610b1d565b6001600160a01b038116610a8157604051631e4fbdf760e01b81526000600482015260240161050d565b610a8a81610d38565b50565b610a95610b1d565b6001600160a01b038116600081815260066020526040808220805460ff19166001179055517fffa4e6181777692565cf28528fc88fd1516ea86b56da075235fa575af6a4b8559190a250565b600033610aef818585610e7a565b5060019392505050565b600033610b07858285610e87565b610b12858585610ee8565b506001949350505050565b6005546001600160a01b036101009091041633146108475760405163118cdaa760e01b815233600482015260240161050d565b610b5a8282610f47565b6001600160a01b037f0000000000000000000000000000000000000000000000000000000000000000163b15610831576040516340c10f1960e01b81526001600160a01b038381166004830152602482018390527f000000000000000000000000000000000000000000000000000000000000000016906340c10f1990349060440160206040518083038185885af193505050508015610c17575060408051601f3d908101601f19168201909252610c14918101906114e9565b60015b1561083157806107d05760405162461bcd60e51b815260206004820152601060248201526f10985b9ac81b5a5b9d0819985a5b195960821b604482015260640161050d565b610c663382610f7d565b6001600160a01b037f0000000000000000000000000000000000000000000000000000000000000000163b15610a8a576001600160a01b037f000000000000000000000000000000000000000000000000000000000000000016639dc29fac336040516001600160e01b031960e084901b1681526001600160a01b039091166004820152602481018490526044016020604051808303816000875af1925050508015610d2f575060408051601f3d908101601f19168201909252610d2c918101906114e9565b60015b15610a8a575050565b600580546001600160a01b03838116610100818102610100600160a81b031985161790945560405193909204169182907f8be0079c531659141344cd1fd0a4f28419497f9722a3daafe3b4186f6b6457e090600090a35050565b610d9d823383610e87565b610da78282610f7d565b6001600160a01b037f0000000000000000000000000000000000000000000000000000000000000000163b1561083157604051632770a7eb60e21b81526001600160a01b038381166004830152602482018390527f00000000000000000000000000000000000000000000000000000000000000001690639dc29fac906044016020604051808303816000875af1925050508015610e62575060408051601f3d908101601f19168201909252610e5f918101906114e9565b60015b1561083157505050565b600033610aef818585610ee8565b6107d08383836001610fb3565b6000610e938484610a22565b90506000198110156109325781811015610ed957604051637dc7a0d960e11b81526001600160a01b0384166004820152602481018290526044810183905260640161050d565b61093284848484036000610fb3565b6001600160a01b038316610f1257604051634b637e8f60e11b81526000600482015260240161050d565b6001600160a01b038216610f3c5760405163ec442f0560e01b81526000600482015260240161050d565b6107d0838383611088565b6001600160a01b038216610f715760405163ec442f0560e01b81526000600482015260240161050d565b61083160008383611088565b6001600160a01b038216610fa757604051634b637e8f60e11b81526000600482015260240161050d565b61083182600083611088565b6001600160a01b038416610fdd5760405163e602df0560e01b81526000600482015260240161050d565b6001600160a01b03831661100757604051634a1406b160e11b81526000600482015260240161050d565b6001600160a01b038085166000908152600160209081526040808320938716835292905220829055801561093257826001600160a01b0316846001600160a01b03167f8c5be1e5ebec7d5bd14f71427d1e84f3dd0314c0f7b2291e5b200ac8c7c3b9258460405161107a91815260200190565b60405180910390a350505050565b6001600160a01b03831615611170576001600160a01b03821615611170576001600160a01b037f0000000000000000000000000000000000000000000000000000000000000000163b15611170576040516317d5759960e31b81526001600160a01b0384811660048301528381166024830152604482018390527f0000000000000000000000000000000000000000000000000000000000000000169063beabacc8906064016020604051808303816000875af1925050508015611169575060408051601f3d908101601f19168201909252611166918101906114e9565b60015b1561117057505b6107d08383836001600160a01b0383166111a1578060026000828254611196919061150b565b909155506112139050565b6001600160a01b038316600090815260208190526040902054818110156111f45760405163391434e360e21b81526001600160a01b0385166004820152602481018290526044810183905260640161050d565b6001600160a01b03841660009081526020819052604090209082900390555b6001600160a01b03821661122f5760028054829003905561124e565b6001600160a01b03821660009081526020819052604090208054820190555b816001600160a01b0316836001600160a01b03167fddf252ad1be2c89b69c2b068fc378daa952ba7f163c4a11628f55a4df523b3ef8360405161129391815260200190565b60405180910390a3505050565b6000815180845260005b818110156112c6576020818501810151868301820152016112aa565b506000602082860101526020601f19601f83011685010191505092915050565b6020815260006112f960208301846112a0565b9392505050565b80356001600160a01b038116811461131757600080fd5b919050565b6000806040838503121561132f57600080fd5b61133883611300565b946020939093013593505050565b60008060006060848603121561135b57600080fd5b61136484611300565b925061137260208501611300565b9150604084013590509250925092565b60006020828403121561139457600080fd5b5035919050565b6000602082840312156113ad57600080fd5b6112f982611300565b600080604083850312156113c957600080fd5b6113d283611300565b91506113e060208401611300565b90509250929050565b600181811c908216806113fd57607f821691505b60208210810361141d57634e487b7160e01b600052602260045260246000fd5b50919050565b60208082526029908201527f4d795553444353696d706c653a20746f6b656e207472616e73666572207768696040820152681b19481c185d5cd95960ba1b606082015260800190565b60208082526024908201527f4d795553444353696d706c653a206163636f756e7420697320626c61636b6c696040820152631cdd195960e21b606082015260800190565b6060815260006114c360608301866112a0565b82810360208401526114d581866112a0565b91505060ff83166040830152949350505050565b6000602082840312156114fb57600080fd5b815180151581146112f957600080fd5b80820180821115610a4957634e487b7160e01b600052601160045260246000fdfea2646970667358221220fb1e096e993abd534f05022b7a9c0693c71642f54210286ceac7cb15762faf6964736f6c63430008140033",
  "linkReferences": {},
  "deployedLinkReferences": {}
}